{
  "contractName": "Blog",
  "abi": [
    {
      "constant": true,
      "inputs": [],
      "name": "title_name",
      "outputs": [
        {
          "name": "",
          "type": "string"
        }
      ],
      "payable": false,
      "stateMutability": "view",
      "type": "function"
    },
    {
      "constant": true,
      "inputs": [],
      "name": "main_text",
      "outputs": [
        {
          "name": "",
          "type": "string"
        }
      ],
      "payable": false,
      "stateMutability": "view",
      "type": "function"
    },
    {
      "inputs": [
        {
          "name": "title",
          "type": "string"
        },
        {
          "name": "text",
          "type": "string"
        }
      ],
      "payable": false,
      "stateMutability": "nonpayable",
      "type": "constructor"
    },
    {
      "constant": false,
      "inputs": [
        {
          "name": "title",
          "type": "string"
        }
      ],
      "name": "SetTitle",
      "outputs": [],
      "payable": false,
      "stateMutability": "nonpayable",
      "type": "function"
    },
    {
      "constant": false,
      "inputs": [
        {
          "name": "text",
          "type": "string"
        }
      ],
      "name": "SetMainText",
      "outputs": [],
      "payable": false,
      "stateMutability": "nonpayable",
      "type": "function"
    }
  ],
  "bytecode": "0x6060604052341561000f57600080fd5b6040516105d93803806105d9833981016040528080518201919060200180518201919050506100508261007364010000000002610393176401000000009004565b61006c8161008d64010000000002610379176401000000009004565b505061014c565b80600090805190602001906100899291906100a7565b5050565b80600190805190602001906100a39291906100a7565b5050565b828054600181600116156101000203166002900490600052602060002090601f016020900481019282601f106100e857805160ff1916838001178555610116565b82800160010185558215610116579182015b828111156101155782518255916020019190600101906100fa565b5b5090506101239190610127565b5090565b61014991905b8082111561014557600081600090555060010161012d565b5090565b90565b61047e8061015b6000396000f300606060405260043610610062576000357c0100000000000000000000000000000000000000000000000000000000900463ffffffff168063300d55491461006757806376d313c6146100f5578063c3248e3414610183578063c882c26f146101e0575b600080fd5b341561007257600080fd5b61007a61023d565b6040518080602001828103825283818151815260200191508051906020019080838360005b838110156100ba57808201518184015260208101905061009f565b50505050905090810190601f1680156100e75780820380516001836020036101000a031916815260200191505b509250505060405180910390f35b341561010057600080fd5b6101086102db565b6040518080602001828103825283818151815260200191508051906020019080838360005b8381101561014857808201518184015260208101905061012d565b50505050905090810190601f1680156101755780820380516001836020036101000a031916815260200191505b509250505060405180910390f35b341561018e57600080fd5b6101de600480803590602001908201803590602001908080601f01602080910402602001604051908101604052809392919081815260200183838082843782019150505050505091905050610379565b005b34156101eb57600080fd5b61023b600480803590602001908201803590602001908080601f01602080910402602001604051908101604052809392919081815260200183838082843782019150505050505091905050610393565b005b60008054600181600116156101000203166002900480601f0160208091040260200160405190810160405280929190818152602001828054600181600116156101000203166002900480156102d35780601f106102a8576101008083540402835291602001916102d3565b820191906000526020600020905b8154815290600101906020018083116102b657829003601f168201915b505050505081565b60018054600181600116156101000203166002900480601f0160208091040260200160405190810160405280929190818152602001828054600181600116156101000203166002900480156103715780601f1061034657610100808354040283529160200191610371565b820191906000526020600020905b81548152906001019060200180831161035457829003601f168201915b505050505081565b806001908051906020019061038f9291906103ad565b5050565b80600090805190602001906103a99291906103ad565b5050565b828054600181600116156101000203166002900490600052602060002090601f016020900481019282601f106103ee57805160ff191683800117855561041c565b8280016001018555821561041c579182015b8281111561041b578251825591602001919060010190610400565b5b509050610429919061042d565b5090565b61044f91905b8082111561044b576000816000905550600101610433565b5090565b905600a165627a7a7230582097ddf967083e66ff3faaf9c1632b3524b884e199cdf5bcd1005baffd427d2f470029",
  "source": "pragma solidity ^0.4.4;\n\n\ncontract Blog {\n    string public title_name;\n    string public main_text;\n    uint article_create_time;\n    function Blog(string title, string text) public {\n    // constructor\n    // create a new article\n        SetTitle(title);\n        SetMainText(text);\n    }\n    function SetTitle(string title) public {\n        title_name = title;\n    }\n    function SetMainText(string text) public {\n        main_text = text;\n    }\n\n}\n",
  "sourcePath": "/Users/howechen/GitHub/CYH-LearnTruffle/truffle_box/truffle_react_box/contracts/Blog.sol",
  "compiler": {
    "name": "solc",
    "version": "0.4.19+commit.c4cbbb05.Emscripten.clang"
  },
  "schemaVersion": "2.0.0",
  "updatedAt": "2018-03-19T07:22:52.814Z"
}