{
  "contractName": "EncryptedToken",
  "abi": [
    {
      "inputs": [],
      "payable": false,
      "stateMutability": "nonpayable",
      "type": "constructor"
    },
    {
      "constant": false,
      "inputs": [
        {
          "name": "_to",
          "type": "address"
        },
        {
          "name": "_amount",
          "type": "uint256"
        }
      ],
      "name": "transfer",
      "outputs": [],
      "payable": false,
      "stateMutability": "nonpayable",
      "type": "function"
    },
    {
      "constant": true,
      "inputs": [
        {
          "name": "_owner",
          "type": "address"
        }
      ],
      "name": "balanceOf",
      "outputs": [
        {
          "name": "",
          "type": "uint256"
        }
      ],
      "payable": false,
      "stateMutability": "view",
      "type": "function"
    }
  ],
  "bytecode": "0x6060604052620a2c2a600055341561001657600080fd5b600054600160003373ffffffffffffffffffffffffffffffffffffffff1673ffffffffffffffffffffffffffffffffffffffff1681526020019081526020016000208190555061023d8061006b6000396000f30060606040526004361061004c576000357c0100000000000000000000000000000000000000000000000000000000900463ffffffff16806370a0823114610051578063a9059cbb1461009e575b600080fd5b341561005c57600080fd5b610088600480803573ffffffffffffffffffffffffffffffffffffffff169060200190919050506100e0565b6040518082815260200191505060405180910390f35b34156100a957600080fd5b6100de600480803573ffffffffffffffffffffffffffffffffffffffff16906020019091908035906020019091905050610129565b005b6000600160008373ffffffffffffffffffffffffffffffffffffffff1673ffffffffffffffffffffffffffffffffffffffff168152602001908152602001600020549050919050565b80600160003373ffffffffffffffffffffffffffffffffffffffff1673ffffffffffffffffffffffffffffffffffffffff1681526020019081526020016000205411151561017357fe5b80600160003373ffffffffffffffffffffffffffffffffffffffff1673ffffffffffffffffffffffffffffffffffffffff1681526020019081526020016000206000828254039250508190555080600160008473ffffffffffffffffffffffffffffffffffffffff1673ffffffffffffffffffffffffffffffffffffffff1681526020019081526020016000206000828254019250508190555050505600a165627a7a72305820c2624ad0914520672e56db5db9856e04eff31647e3a98d2e8e70529207ab3e520029",
  "source": "pragma solidity ^0.4.4;\n\ncontract EncryptedToken {\n  uint256 INITIAL_SUPPLY = 666666;\n  mapping(address => uint256) balances;\n  function EncryptedToken() public {\n    balances[msg.sender] = INITIAL_SUPPLY;\n  }\n  // 转账到一个指定的地址\n  function transfer(address _to, uint256 _amount)public {\n    assert(balances[msg.sender] > _amount);\n    balances[msg.sender] -= _amount;\n    balances[_to] += _amount;\n  }\n  // 查看指定地址的余额\n  function balanceOf(address _owner) public view returns (uint256) {\n    return balances[_owner];\n  }\n}",
  "sourcePath": "/Users/howechen/GitHub/CYH-LearnTruffle/contracts/EncryptedToken.sol",
  "compiler": {
    "name": "solc",
    "version": "0.4.19+commit.c4cbbb05.Emscripten.clang"
  },
  "schemaVersion": "2.0.0",
  "updatedAt": "2018-03-18T13:57:45.768Z"
}